:020000040800F2
:1000000000000520792C00083D3000083F30000832
:10001000413000084330000845300008000000006F
:100020000000000000000000000000004730000851
:1000300049300008000000004B3000084D30000837
:10004000C92C0008C92C0008C92C0008C92C0008BC
:10005000C92C0008C92C0008C92C0008C92C0008AC
:10006000C92C0008C92C0008C92C0008C92C00089C
:10007000C92C0008C92C0008C92C0008C92C00088C
:10008000C92C0008C92C0008C92C0008C92C00087C
:10009000C92C0008C92C0008C92C0008C92C00086C
:1000A000C92C0008C92C0008C92C0008C92C00085C
:1000B000C92C0008C92C0008C92C0008C92C00084C
:1000C000C92C0008C92C0008C92C0008C92C00083C
:1000D000C92C0008C92C0008C92C0008C92C00082C
:1000E000C92C0008C92C0008C92C0008C92C00081C
:1000F000C92C0008C92C0008C92C0008C92C00080C
:10010000C92C0008C92C0008C92C0008C92C0008FB
:10011000C92C0008C92C0008C92C0008C92C0008EB
:10012000693000085D300008C92C0008C92C00089F
:10013000C92C0008C92C0008C92C0008C92C0008CB
:10014000C92C0008C92C0008C92C0008C92C0008BB
:1001500075300008C92C0008C92C0008C92C0008FB
:10016000C92C0008C92C0008C92C0008C92C00089B
:10017000C92C000851300008C92C000800000000FC
:10018000C92C0008C92C0008C92C0008C92C00087B
:10019000C92C0008C92C0008C92C0008C92C00086B
:1001A000C92C0008C92C0008C92C0008C92C00085B
:1001B000C92C0008C92C0008C92C0008C92C00084B
:1001C000C92C0008C92C0008C92C0008C92C00083B
:1001D000C92C0008C92C0008C92C0008C92C00082B
:1001E000C92C0008C92C0008C92C0008C92C00081B
:0801F000C92C0008C92C00080D
:1001F80010B5054C237833B9044B13B10448AFF359
:1002080000800123237010BDBC0100200000000005
:100218004C75000808B5034B1BB103490348AFF3FD
:10022800008008BD00000000C00100204C750008D7
:1002380053B94AB9002908BF00281CBF4FF0FF3145
:100248004FF0FF3000F072B9ADF1080C6DE904CE43
:1002580000F006F8DDF804E0DDE9022304B0704799
:100268002DE9F047089E04468846002B4BD18A4268
:10027800154667D9B2FA82F24AB1C2F1200701FAEB
:1002880002F320FA07F7954047EA030894404FEA3B
:10029800154E230CB8FBFEF71FFA85FC0EFB1788DA
:1002A80043EA084307FB0CF1994209D9EB1807F117
:1002B800FF3080F01B81994240F21881023F2B44A5
:1002C8005B1AA4B2B3FBFEF00EFB103344EA0344FE
:1002D80000FB0CFCA44509D92C1900F1FF3380F070
:1002E8000781A44540F2048102382C4440EA0740C3
:1002F800A4EB0C0400271EB1D4400023C6E9004338
:100308003946BDE8F0878B4209D9002E00F0EB8012
:100318000027C6E9000138463946BDE8F087B3FA38
:1003280083F7002F47D18B4202D3824200F2FA8032
:10033800841A61EB030301209846002EE0D0C6E939
:100348000048DDE702B9FFDEB2FA82F2002A40F087
:100358008F80491B4FEA154E1FFA85F80127B1FB1C
:10036800FEFC230C0EFB1C1143EA014308FB0CF1B5
:10037800994207D9EB180CF1FF3002D2994200F2EA
:10038800CD808446591AA3B2B1FBFEF00EFB1014BF
:1003980043EA044408FB00F8A04507D92C1900F1EA
:1003A800FF3302D2A04500F2B6801846A4EB080439
:1003B80040EA0C409FE7C7F1200CBB4022FA0CFE34
:1003C8004EEA030E01FA07F420FA0CF521FA0CF3B1
:1003D8004FEA1E482543B3FBF8F92C0C08FB1933E8
:1003E8001FFA8EFA44EA034309FB0AF49C4202FA14
:1003F80007F200FA07F10BD91EEB030309F1FF30EE
:1004080080F087809C4240F28480A9F102097344FD
:100418001B1BADB2B3FBF8F008FB103345EA0344ED
:1004280000FB0AFAA24508D91EEB040400F1FF33C9
:100438006BD2A24569D90238744440EA0940A0FB4E
:100448000289A4EB0A044C45C2464B4654D351D00A
:10045800002E69D0B1EB0A0564EB030404FA0CFC26
:10046800FD40FC404CEA0505C6E90054002747E773
:10047800C2F1200320FA03F7954001FA02F021FAAD
:1004880003F34FEA154E3843010CB3FBFEF71FFA8E
:1004980085F80EFB173341EA034107FB08F38B424B
:1004A80004FA02F407D9691807F1FF3C2FD28B42EE
:1004B8002DD9023F2944CB1A81B2B3FBFEF00EFBC3
:1004C800103341EA034100FB08F38B4207D969184E
:1004D80000F1FF3C17D28B4215D902382944C91ABA
:1004E80040EA07473BE73746304609E70746E7E66D
:1004F8001846FBE64145ABD2B8EB020A69EB0E029F
:1005080001381346A4E76046E9E7184695E76746C9
:10051800D1E781467CE702382C4447E7ACF1020C6E
:100528002B442FE7384608E73746E9E6704700BF0F
:10053800024B1A8802805868704700BFD801002013
:100548000020704770B5D0F8906200253446737863
:10055800AB4201DC002070BD94F826301BB1E36C7F
:100568000BB1A06D984701353834F0E7002070478B
:100578000A23038000487047000000202DE9F04757
:10058800D0F890420746DFF888800125A034DFF8CC
:100598008490C2466379D8F808207BB305EB090339
:1005A8005B011968002929DAC2F30D221B6882EA67
:1005B8001343DB0705D523890233C3F30A039A42A1
:1005C8001CD165F07F063846F6B206F07F03314647
:1005D8004B445B011A6842F090421A6002F0E6FE52
:1005E800DAF80830C3F30D23238123796BB9226825
:1005F800314638469389926802F007FF01350C347A
:10060800052DC7D10020BDE8F08702F012FDF5E7FF
:100618000008044048200002F8B50C22D0F89032B7
:1006280001F07F0406460F4602FB043494F8993023
:10063800BBB1D4F89450A9186B69286A98470A4B3B
:10064800D4F8942047F080019B68A8603046C3F333
:100658000D23A4F89C309389926802F0D6FE0020FE
:10066800F8BD02F0E6FCFAE70008044038B5D0F817
:10067800903293F85A41D4B193F81021012A16D137
:10068800D3F80C215178062907D1B3F8580191689D
:10069800050A012D04D0022D0BD002F0CAFC06E099
:1006A8004C6824B1D268C0B293F81111A047002059
:1006B80038BD012CF1D18C68002CF8D0D268C0B2BA
:1006C800B3F81111A047F2E7F7B5D0F890320C242F
:1006D80006460F4604FB013494F8D530D3B102F036
:1006E800A2FE02ADD4F8D03080B21A69196A25F892
:1006F800020D9047D4F8D03029465A69186A9047B5
:10070800BDF8063002463946304602F085FE002024
:1007180003B0F0BD02F08DFCF9E700002DE9F041CF
:100728000B780746D0F8906213F0600400F08380DD
:10073800202C27D103F00303012B40F0A0804B7835
:10074800012B06D0C0F09B80A3F18102032A00F29E
:100758009680002296F800C086F85A218888000AF8
:1007680062450CDA1401351995F804E086450BD179
:1007780048882A894FEA102C1CEA020F06D138460D
:1007880006F066FD00247EE00132E9E71A0613D47C
:1007980001220434A6F858013846344486F810215A
:1007A800CA8806F21111C6F80C41C6F8542186F819
:1007B8005A3106F089FDE5E76A79062A06D15FFA1B
:1007C8008CF1EA68012904D0022912D002F031FC28
:1007D800D8E7002306F21116337013681BB12A6993
:1007E8003146C0B2984701223146384606F057FDD7
:1007F800C8E7813B06F21115032B17D8DFE803F091
:10080800020D1013D368A3B1264429460025C0B2AF
:100818003269984702222946E7E702F11205F9E70B
:1008280002F11005F6E702F11405F3E702F001FC06
:10083800F0E71D46EEE74B780A2B1CD00B2B0FD0A8
:10084800062B1CD14B881B0A212B1CD1CA884E4B66
:10085800092A596828BF0922123106F020FD12E042
:10086800A04675780A79382445451EDC3AB98B7854
:10087800002B87D003E072783820A24206DC0224DD
:10088800384606F0E5FC2046BDE8F08100FB04F39D
:10089800F51895F824C00D79AC4504D103F126016B
:1008A80001223144A1E70134E7E704FB08F3F0181B
:1008B80090F824C0944564D18C7890F8262094420E
:1008C8003FF460AF90F828500C2115F0800F15BF49
:1008D80005F00F0501FB056501FB0565D03518BF5F
:1008E80094359CB93AB16B792BB12B683846197895
:1008F80002F044FD6C713823002003FB0866336D59
:10090800B16D9847002386F82630BCE72833204687
:1009180033442B60382303FB0866B16D336D984769
:100928002B6886F826409A69186A90472968034612
:10093800E88001220978384602F015FD2C68012369
:1009480004F10C016B716369206A98472A68A060FA
:1009580011780B060FD5384602F028FD0B4B296895
:1009680038469B688A68C3F30D232B818B890978E5
:1009780002F04BFD06E7EB883846926802F04CFD22
:1009880000E708F101086FE7D801002000080440DB
:100998002DE9F047D0F890520446D0F894920126F9
:1009A8002F46A8464FF0000A98F8A5303BB166F0EC
:1009B8007F012046C9B202F0E1FC88F8A5A0013603
:1009C80008F10C08052EEFD101264FF0000897F822
:1009D800E1302BB1F1B2204602F0D0FC87F8E1807B
:1009E80001360C37052EF2D15DB1D9F8043028460E
:1009F800D9F810109847284606F0C0FC0023C4F820
:100A080090320020BDE8F08738B504464FF4AE7048
:100A180006F0ACFC054690B14FF4AE72002106F02A
:100A2800C0FCD4F8943228461A681969904740B136
:100A3800D4F8900206F0A2FC0023C4F890320220F9
:100A480001E0C4F8905238BD08B531B1C0F894122D
:100A58008B680A690249081D9847002008BD00BF35
:100A6800D801002008B580B1D0F88C3213B100232A
:100A7800C0F88C3209B1C0F888120123027080F8DE
:100A8800743202F027FC002008BD0220FCE719B1EF
:100A9800C0F88C12002070470220704708B502F099
:100AA8005BFC002008BD08B5D0F88C320BB90220D9
:100AB80008BD1B6898470028FAD0F8E708B5D0F8B1
:100AC8008C325B689847002008BD38B500F5207562
:100AD8000446284606F0A8FB012394F88012C4F8BF
:100AE8006C32B4F88632C4F8703201F01F03012B5F
:100AF8000ED007D3022B10D001F08001204602F05F
:100B08005CFC03E02946204606F0C6F9002038BD03
:100B18002946204606F0DAFAF8E72946204606F084
:100B2800FAFAF3E738B50446154611BBD0F86C322B
:100B3800032B0FD1D0F84C31D0F8502193420BD968
:100B48009B1A29469A42C0F84C3128BF1A4692B2DD
:100B580006F0C9FB002038BDD0F88C321B6923B1E0
:100B680090F87422032A00D19847204606F0C3FB68
:100B7800F0E7D0F88C329B69002BEBD090F8742208
:100B8800032AE7D19847E5E770B5134604460E46B1
:100B980000293DD1D0F86C22022A0FD1D0E90852A1
:100BA800954214D9AA1A1946026292B206F084FB39
:100BB80033461A461946204602F02EFC94F878323D
:100BC800012B02D1002384F87832002070BDC3695C
:100BD800B3FBF2F502FB153565B99A420AD8D0F88D
:100BE8007022934206D22A4606F066FBC4F8705279
:100BF8002B46DEE7D4F88C32DB682BB194F87422EC
:100C0800032A01D120469847204606F07FFBD5E706
:100C1800D0F88C325B69002BD7D090F87422032A65
:100C2800D3D19847D1E7002238B50446402511466C
:100C3800402302F098FB2B46C4F850510022802133
:100C4800204602F090FB0123656284F87432D4F8E0
:100C580090322BB1D4F88C32204621795B689847C2
:100C6800002038BD01740020704790F8743280F875
:100C78007532042380F874320020704790F875327A
:100C880080F874320020704708B590F87422032A5F
:100C980004D1D0F88C32DB6903B19847002008BD35
:100CA80008B590F87422032A04D1D0F88C321B6A54
:100CB80003B19847002008BD08B590F87422032AAC
:100CC80004D1D0F88C325B6A03B19847002008BD84
:100CD800002070470122017908B580F87422D0F805
:100CE8008C2252689047002008BD002303701846E4
:100CF8007047137803F0FD03012B08D1022390619C
:100D08001370002343601375137A03B9118600200A
:100D1800704703230370002070470378022B04BF39
:100D28004023037500207047808B70470020704770
:100D380000230370184670470B4610B501F13404C0
:100D480007C884E8070002229C6B1A7024B159680E
:100D58000020DA6BC968A047002010BD0323037088
:100D680000207047536800201B7C0B70704708B543
:100D7800536819741378022B03D1536B0BB1D26BE0
:100D88009847002008BD53680020DB680B80704737
:100D980008B50B04536848BFA1F58031D9601378B2
:100DA800022B03D1936B0BB1D26B9847002008BD7F
:100DB80070B504460D46164600214022184606F036
:100DC800F0FA0122154903460270022201630272F9
:100DD800134A14490264144A06754264134A826429
:100DE800134AC264134A0265C0E90612124A4262F3
:100DF800124A02622A6802856A684285AA68828560
:100E0800EA684260032200202670A28006226080E1
:100E1800627003F11802C4E9022370BD210F0008B3
:100E2800B90D00086D0D0008390D0008410D0008C6
:100E3800650D0008770D00088F0D0008990D000852
:100E48000378022B70B504460E4661D1037D5A061D
:100E580006D50023826903759380246B204670BDF4
:100E6800C2680146032093689847E38BA5693380DD
:100E7800237DDB070DD42A89EB88B3EB520FECD323
:100E8800E2682146012093689847237D43F00103D7
:100E98002375EB88AA8893423CBF29895B1831885F
:100EA8009B1AE2689BB2994204D9936821460520AF
:100EB8009847D2E7104600F04BFB3188014489B2CD
:100EC8003180A08B814228BF01463180E06800F064
:100ED8004BFBAA883388296828898C181A4492B24F
:100EE8008242AA800DD9121A084492B2AA8006F04A
:100EF8004DFAAB882A891344B3F5006F01DB02F081
:100F080097F8AA882B899A42A8D10023AB80A5E735
:100F180002F08EF80024A1E70020704770B55960F0
:100F28001C46DA6001230646237023720B680A798F
:100F3800497C03F57A754A434FF47A71B5FBF1F5AC
:100F4800B3FBF1F315FB02F513FB02F3ADB2E38338
:100F5800A583284606F00AFA2063C8B12A4600216C
:100F680006F01FFA0C4B002023620C4B63620C4BFB
:100F7800E3620C4BA3628123708033700A4BB0800C
:100F880073610A4B3462B361094B3061F36170BD20
:100F980002F04EF8E6E700BFF30C0008FB0C00086F
:100FA8001B0D0008230D0008490E0008310D00082C
:100FB800350D0008CB1AB3FBF2F313FB02F2002342
:100FC8000281436070470020704700000379022BBC
:100FD80070B5064640F094808B4D95F82E302C461F
:100FE80013F0010F00F08C801B0740F10281EB6EBB
:100FF80005F1300098472A8B6B690132034492B29D
:101008006B61B2F57A7F2A8307D195F92F20B3FB5C
:10101800F2F32B6100232B836B61E3692269184487
:10102800E061002A00F0CF80718B338B99423CBF7E
:10103800B58B491994F82E50C91A15F0100389B2C6
:1010480040F0AF80268DB14280F2A180668DB1421A
:1010580040F3A380616A88425EDA494288425BDDD8
:101068006D0621684DD4531A18BF012394F82E1029
:10107800C90645D403B3D4F87C3394F92F109A42A7
:10108800DFED626A07EE901A226034BF9B1AD31A0A
:10109800B8EEE77A07EE903A0B23F8EE677A84F811
:1010A8002E30002367EE877AA360002387EEA67AA6
:1010B800E360E36184ED017AD4ED017AF5EE407ADC
:1010C800F1EE10FA1CD094ED027A94F92F3077EEF5
:1010D800877A07EE103AB8EEC77AC4ED027AF4EED2
:1010E800C77AF1EE10FA40F38180D4F87C1377EEDA
:1010F800C77A22689142C4ED027A28BF5B42E36056
:1011080070BD002803DC8A4255D30028AED18A423C
:1011180094BF00230123A9E7002826DD21688A421D
:1011280049D80131D4F87C0394ED017A81422160D9
:1011380094F92F309FED356A27D907EE903AF8EEEB
:10114800E77AC7EE866A77EE267AC4ED017A94F9D3
:101158002F3045F0400507EE903AF8EEE77AC4EDF7
:10116800027A84F82E50002380E7F0D021688A4262
:1011780021D30139D4F87C0394ED017A81422160AE
:1011880094F92F309FED216AD7D95B42D5E794F9BE
:101198002F30E36045F01005E3E794F92F305B4208
:1011A800F7E7E368002B08DDA38D9942DBDB25F028
:1011B800100584F82E50012358E73FF457AFA38D4C
:1011C8009942D0DCF3E7628C5300984202DB94F931
:1011D8002F300CE00344002B03DC94F92F305B42E2
:1011E80005E090428CDC9B1A002B89DB0023E3602E
:1011F80086E7AB6E05F13000984795F82E3043F03E
:10120800080385F82E307BE7E001002000007A44CF
:1012180038B503780546022B10D1094CD4F8BC33F5
:1012280004F564709847D4F8103404F57170984741
:10123800636D04F13000984703232B70002038BDFC
:10124800E00100202DE9F0430D4685B04E7C804634
:1012580048B926B1081DFFF7DBFF85F8118000208B
:1012680005B0BDE8F083002EF9D10B7903F0FD033A
:10127800012BF2D1114C0DF1100905F11407236E61
:1012880004F13001384684F82E600293E36D03912F
:1012980049F80C3DAE61236D9847D4F80C3404F539
:1012A800717148469847D4F8B43304F564723146EE
:1012B8003846984702232B71CFE700BFE001002092
:1012C80038B503790546CBB1022B02D10430FFF7BC
:1012D8009FFF0B4CE36C04F130009847D4F8B0330F
:1012E80004F564709847D4F8083404F57170984789
:1012F800686908B106F042F800232B71002038BD58
:10130800E0010020114B10B593F8802393F88D432A
:101318005984490812FB04F2596283F82F2000EB24
:10132800400292101A85820840085A85D3F87C2317
:1013380098851A6000221A6183F82020DA61DA6041
:101348001A835A61012283F82E2010BDE001002083
:10135800431E70B51446072B2AD8DFE803F05F4513
:101368005A2B2B292904314DAB6D05F130009847D4
:10137800B5F8AE13A08BFFF7C5FFD5F87C1395F829
:101388008D334FF47A7095F880235A4301F2E7338E
:10139800B1FBF0F1B3FBF0F313FB02F304F114001B
:1013A80011FB02F24FF400619BB292B2FFF702FE0A
:1013B800002070BD04281D4DA08B0BBFD5F8183434
:1013C800D5F81C34013301330CBFC5F81834C5F8FF
:1013D8001C340023A361B5F8AE13FFF793FFD5F8CB
:1013E800B83313489847E3E7104D95F82030013398
:1013F8005BB2042B85F82030DAD10026D5F8B83353
:1014080005F56470A66185F82E60984785F8206018
:10141800CEE7064B002283F82020C9E7034BA08BB8
:10142800B3F8AE13FFF76EFFC2E700BFE00100207C
:10143800700500202DE9F04F904685B006468A4693
:101448002022002118461D4605F0ABFF3A4A3B4CC6
:101458000123EA6029463A4A04F55F772B8204F1B2
:10146800300BAA604FF40072A4F88433022304F509
:101478006479A4F88C2384F8803303235A463846C9
:10148800A4F882334BF68033C4F87C330023C4F8C5
:10149800883388F8003001F0FBFC39464B462A4671
:1014A800C5F800B0301DFFF739FD03975B46676E3E
:1014B80002AA01A96846B84704F57177152269465A
:1014C8003B465046FFF774FC98F800304FF4006034
:1014D800013388F800302764C4F8D49305F046FF38
:1014E800686108B901F0A4FD94F88D234FF47A716E
:1014F80094F8803305F1140013FB02F3D4F87C232D
:10150800B2FBF1F213FB02F34FF400619BB21A46EF
:10151800FFF750FD0B4A2B7C0020F2620A4A337019
:1015280001233263094AB07073707563B2622B711C
:1015380005B0BDE8F08F00BFC9120008E001002027
:10154800591300084D120008CF0F0008D50F0008E6
:10155800044B93F82E0010F0010018BF93F90C000B
:10156800704700BFE0010020044B002093F82E20B4
:10157800D20742BFDA69521ADA617047E0010020E7
:1015880008B1024B03606E20704700BF4400002082
:1015980010B504460348C3689847002084F826001D
:1015A80010BD00BFD00700200020704710B50C46C2
:1015B800FFF7E6FF2080002010BD000037B50025AA
:1015C80002AA0446011D02F8015D2430054BFFF70D
:1015D80031FF9DF80730012228462370627003B05E
:1015E80030BD00BFD0070020012910B5C4B20FD00C
:1015F80003292DD140F60F720521204602F084F808
:10160800012240F20161204602F07EF801220CE03E
:1016180040F60C420521204602F076F8002240F2FE
:101628000161204602F070F8002240F20261204673
:1016380002F06AF8022240F20461204602F064F8DF
:101648000222204640F2056102F05EF8002010BD3B
:1016580040F203320521204602F056F8012240F2FA
:101668000161204602F050F8012240F20261204652
:1016780002F04AF8002240F20461204602F044F8E1
:101688000022DEE7B1F57A5FC0B208B51DD008D8F0
:10169800B1F5FA5F12D042F61133994219D083227C
:1016A8000DE04AF64443994215D00C4B99420ED0AE
:1016B80045F222639942F2D1432200E003224FF41B
:1016C800047102F021F8002008BD3322F7E7A322B5
:1016D800F5E71322F3E77322F1E700BF0077010073
:1016E8000022C0B208B5114602F00EF8024B0020E5
:1016F800C3E9000008BD00BF0006002002F002B8E0
:1017080010B5044601F0F8FF0021E0B202F00EF82F
:1017180010BD00000F4B1B6810B583B10129C4B27E
:101728000FD14FF400724FF48461204601F0ECFFB2
:101738004FF4007240F22241204601F0E5FF0020FC
:1017480010BD00224FF48461204601F0DDFF002225
:10175800F0E700BF000600200021FFF7DBBF0021F3
:10176800FFF7D8BF38B501210546FFF7D3FF044678
:101778000122E8B2022101F0C7FF204638BD00006F
:1017880064292DE9F8434FF0640798BFC1EB811332
:1017980005460C4698BF93FBF7F7394B98BFFFB245
:1017A8001E68994626B33E2F1DD9EFB20021FFF7D8
:1017B800B1FF40F27F121C210646384601F0A4FF13
:1017C80040F27F121D21384601F09EFF40F27F1241
:1017D8002621384601F098FF40F27F12272138462B
:1017E80001F092FF04E079BB0121FFF793FF064661
:1017F800D9F804302BB3632CEDB24FF480619ABF53
:10180800C4EB04146423EF2428469EBF240194FBF0
:10181800F3F4E4B244F48074224601F075FF2246E2
:1018280040F20141284601F06FFF224640F2044190
:10183800284601F069FF224640F20541284601F09A
:1018480063FF3046BDE8F8835FFA85F847F4A07770
:101858000021FFF75FFF3A461C210646404601F08B
:1018680053FF3A461D21404601F04EFF3A462621D5
:10187800404601F049FF3A4627214046B0E700BFFD
:10188800000600202DE9F84F81461F4601F47F45E8
:1018980092465FFA89F4CEB201F02EFF03224FF48C
:1018A8008171204601F030FF002240F617012046E2
:1018B80001F02AFF00224FF48171204601F024FF35
:1018C8006C223921204601F01FFFC5B313220121E4
:1018D800204601F019FF322001F03EFFDFF890B4F6
:1018E800002E00F082804FF00108022ECBF8008015
:1018F80061D0032E25D046455DD140F60C42052126
:10190800204601F001FF002240F20161204601F06B
:10191800FBFE002240F20261204601F0F5FE0222A1
:1019280040F20461204601F0EFFE022240F2056118
:10193800204601F0E9FE35BBCBF80450B1E00322A4
:10194800C5E7B5F5006F40F60F724FF00501204668
:1019580027D101F0D9FE324640F20161204601F05C
:10196800D3FE324640F20261204601F0CDFE3246F7
:1019780040F20461204601F0C7FE324640F205619C
:10198800204601F0C1FE0123B5F5007FCBF80430F5
:1019980063D02DD8B5F5807F00F091814FF0010814
:1019A80081E001F0B1FE424640F20161204601F0BB
:1019B800ABFE4246AEE740F203320521204601F075
:1019C800A3FE424640F20161204601F09DFE4246D8
:1019D80040F20261204601F097FE002240F20461C5
:1019E800204601F091FE0022A0E7CBF80060A2E7B4
:1019F800B5F5407F00F03481B5F5006FCED140F6E3
:101A08003C720421204601F07FFEDB224FF48A61FC
:101A1800204601F079FEDB224FF48861204601F070
:101A280073FE46F2A0320221204601F06DFE02222A
:101A380040F20661204601F067FE022240F207618B
:101A4800204601F061FE02224FF4C161204601F0F8
:101A58005BFE022240F209612CE14FF4436204214B
:101A6800204601F051FEDB224FF48A61204601F046
:101A78004BFE4FF4C0420221204601F045FE0222EF
:101A88004FF4C161204601F03FFE022240F2096195
:101A9800204601F039FE0E224FF4E061204601F0A5
:101AA80033FE4FF0000845F222639F4200F0238185
:101AB80000F2088142F611339F4200F01A81B7F50F
:101AC8007A5F00F01281B7F5FA5F40F003810322D4
:101AD8004FF40471204601F017FEB5F5006F40F091
:101AE8000E8144F218024FF44071204601F00CFEBA
:101AF800002240F20231204601F006FE0A224FF48D
:101B08000271204601F000FE01224FF400712046C8
:101B180001F0FAFD002E00F082804FF4407203219C
:101B2800204643F2033601F0EFFD00222221204631
:101B380001F0EAFD00222321204601F0E5FD4FF4E3
:101B480040723621204601F0DFFD43F203020121F5
:101B5800204601F0D9FDB5F5006F4FF05101204640
:101B68000CBF40F20522052201F0CEFD43F20332FC
:101B78000121204601F0C8FD22226021204601F003
:101B8800C3FD49F625724C21204601F0BDFD0F200A
:101B980001F0E2FD01222D21204601F0B5FD0122D0
:101BA8002E21204601F0B0FD4FF44C72032120464F
:101BB80001F0AAFD33225421204601F0A5FDFA20A8
:101BC80001F0CAFDEE226021204601F09DFDC022F1
:101BD8004FF4C261204601F097FDC02240F2116126
:101BE800204601F091FD00224FF48461204601F067
:101BF8008BFDC02240F21261204601F085FDC02213
:101C080040F21361204601F07FFD002240F222419C
:101C1800204601F079FD51464846FFF7B1FDE5B190
:101C2800B5F5807F02D0B5F5007F71D146F013027B
:101C38000121204601F068FD02224FF4C4612046CC
:101C480001F062FD4FF4605240F21141204601F06C
:101C58005BFD51464846FFF793FD4046BDE8F88FC7
:101C680011222821204601F04FFD35222921204646
:101C780001F04AFD35222A21204601F045FD40F2B7
:101C880003320421204601F03FFDDB224FF4886136
:101C9800204601F039FD46F250320221204601F07B
:101CA80033FD022240F20661204601F02DFD02229A
:101CB80040F20761204601F027FD0D22ECE64FF4C3
:101CC8004372DEE74AF644439F4216D004D8B7F57C
:101CD800FA4F0CD08322FBE64BF680339F42F9D0B3
:101CE800224B9F42F6D1A322F2E63322F0E663228A
:101CF800EEE61322ECE64322EAE67322E8E69DF8D4
:101D08002830102B0CBF44F2100244F27002EAE6AD
:101D1800B5F5006F15D146F013020121204601F0F8
:101D2800F3FC02224FF4C461204601F0EDFC4FF4AD
:101D3800C0524FF48261204601F0E6FC4FF4C052D5
:101D480082E7B5F5407F02D0B5F5806F81D10B22CF
:101D58001821204601F0D8FC0B221A21204601F058
:101D6800D3FC4FF4C0524FF482616FE70077010053
:101D780000060020F8B5194E04460F46356855B3DD
:101D88000121FFF7C7FC022F054624D0E4B24FF427
:101D980000724FF48461204601F0B6FC4FF40072E3
:101DA80040F22241204601F0AFFC00222D212046BE
:101DB80001F0AAFC00222E21204601F0A5FC0022F9
:101DC8000521204601F0A0FC00222046114601F022
:101DD8009BFC002333602846F8BD00BF00060020A6
:101DE80010B5084B084C094A094822601A68036074
:101DF80022F480321A6004F024FB2046BDE810402B
:101E080004F01FBB24580140280900200458014051
:101E1800440800207047000070B53F4C8AB04FF06E
:101E2800700C4FF0000E636C05460E463B4843F4B9
:101E3800800305A96364636C03F480030193019B29
:101E4800236B43F040032363236B03F040030293A7
:101E5800029B236B43F010032363236B03F01003EF
:101E68000393039B0223CDE905C30323CDE907E3CD
:101E78000623099302F09AF9802305A928480593B7
:101E880002F094F9236B43F480032363236B03F478
:101E980080030493049B002E3CD032782968214BA0
:101EA80099422DD1182A204B4FF000014FF04000E5
:101EB8000CBF4FF480524FF40062D96007BF5A61DB
:101EC8004FF480425A614FF40052EB669A61002247
:101ED8009D63C3E901104FF48061042019614FF438
:101EE8000031C3E907210321C3E90B220F4AC3E9E3
:101EF80009010D481A6001F0F1FF0B4801F070FF6D
:101F080000220221392001F0BBFC392001F0EAFC53
:101F18000AB070BD1022C1E700380240001002402C
:101F280000180240045801400806002028640240B6
:101F380010B5A4B00C46684604F03CF842F61133DC
:101F48009C4207D045F222639C4203D04AF64443A0
:101F58009C4211D14FF4002300934FF480130F9348
:101F680040F2AD13019302230393132368460993A8
:101F780003F072FD24B010BD4FF4002300934FF41A
:101F880080130F934FF4AC7301930723039301233A
:101F9800ECE700000A4B0B4A30B59C7802F1640567
:101FA8000023B1FBF4F111669C4201D8002030BD3A
:101FB800116E890003FB010145F823100133F3E793
:101FC800F80000200806002010B5164CB4F874304C
:101FD80013BB154B9B78022B0ED8226E616E1348EB
:101FE80001F07EFE70B9226EA16E114801F078FEF4
:101FF800003018BF012006E0226EE16E0D4801F0A6
:102008006FFE08B1012010BD226E216F0A4801F051
:1020180067FE0028E1D0F5E78AB20146074804F0D8
:102028007BFAE5E708060020F8000020C00B002036
:10203800AC090020F0070020340B002044080020E1
:10204800184BB3F8743010B5D3B9174B9B78022BE3
:102058000AD8164801F084FE50B9154801F080FEF0
:10206800003018BF012004E0124801F079FE08B1E1
:10207800012010BD104801F073FE0028E9D0F7E7F1
:102088000E4804F0FEF90E4B012134201B689B69B1
:10209800984704460028EBD1012001F0CDFB2046EB
:1020A800E7E700BF08060020F8000020C00B00206A
:1020B800AC090020F0070020340B00204408002061
:1020C800600A0020022B1144F0B524D02D4D2E4C6F
:1020D8002E4E91422BDDAB6E970053F82230A3426F
:1020E8004BDBB342A8BF334603704FEA132C1B0CDB
:1020F80080F801C083706B6EDB59A3423FDBB342AB
:10210800A8BF3346C3701F0A1B0C01320771063083
:1021180000F8013CDDE71B4B47F6F8751C4CD3E98A
:1021280019766FF0030303FB0200914201DC0020E3
:10213800F0BD56F822301B12A34212DBAB4213DC6F
:102148009BB220F8223057F822301B12A3420EDB34
:10215800AB420FDC9BB200EB820C0132ACF80230D0
:10216800E3E748F20803ECE747F6F873E9E748F2D3
:102178000803F0E747F6F873EDE72346B4E723468C
:10218800C0E700BF08060020080080FFF8FF7F00B6
:102198000880FFFF08B51C4B98421C4B1BD101223D
:1021A8009A671B499A6F8978022924D9012A11D183
:1021B800DA6F012A0ED1D3F88020012A0AD1D3F888
:1021C8008420012A06D10022C3E91E22C3E9202265
:1021D80000F0D2FE08BD0F4A904202D10122DA6710
:1021E800DFE70D4A90424FF001020CBFC3F8802090
:1021F800C3F88420D5E7012AECD1DA6F012AE9D1A6
:102208000022C3E91E22E3E7AC09002008060020EB
:10221800F8000020C00B0020340B002008B500F0A7
:10222800ABFE08BD08B51F4B98421F4B1ED10122BB
:10223800C3F888201D49D3F888208978022926D92F
:10224800012A12D1D3F88C20012A0ED1D3F890207C
:10225800012A0AD1D3F89420012A06D10022C3E921
:102268002222C3E9242200F07BFE08BD104A9042D6
:1022780003D10122C3F88C20DCE70E4A90424FF0CC
:1022880001020CBFC3F89020C3F89420D2E7012ABA
:10229800EBD1D3F88C20012AE7D10022C3E922220E
:1022A800E1E700BFAC09002008060020F800002084
:1022B800C00B0020340B002008B500F051FE08BD0B
:1022C8007047000008B50268044B9A4202D1FFF734
:1022D800A1FD08BDFFF7F4FFFBE700BF045801406C
:1022E8002DE9F04FA34D8FB0A34CB5F87420636C63
:1022F800002A40F0C88043F00053082509A99F48E8
:102308006364636C03F000530293029B236B43F0F6
:1023180004032363236B03F004030393039B236BDE
:1023280043F008032363236B03240B9203F0080391
:102338000493049B0223CDE90C44CDE9095301F031
:1023480035FF09A98E4809950D9401F02FFF8D4B93
:102358009A789B46022A07D94FF4006309A988484E
:1023680009930D9401F022FF834B4FF08055864866
:1023780000245A6C4FF4806A4FF480594FF4804817
:1023880042F000524FF480774FF400365A645A6C8A
:1023980002F000520192019A1A6B42F480021A6309
:1023A8001B6B066203F480030993099B774B80F843
:1023B8003540C0E90035764BC0E902449862836332
:1023C800C0E904A9C0E9068701F00AFD22460421F4
:1023D800382001F055FA382001F084FA6D486E4B28
:1023E800066280F83540C0E900356C4BC0E902440C
:1023F80098628363C0E904A9C0E9068701F0F0FC8C
:1024080022460421442001F03BFA442001F06AFAF4
:102418009BF80230022B33D96148624B066280F880
:102428003540C0E90035604BC0E9024498628363D7
:10243800C0E904A9C0E9068701F0D2FC22460421BC
:10244800452001F01DFA452001F04CFA5748584B39
:10245800066280F83540C0E90035564BC0E90244B1
:1024680098628363C0E904A9C0E9068701F0B8FC53
:1024780046202246042101F003FA462001F032FAF0
:102488000FB0BDE8F08F43F480030227002609A9A6
:102498006364636C484803F480030593059B236BCE
:1024A80043F010032363236B03F010030693069B8A
:1024B8000823CDE909370623CDE90B670D9301F011
:1024C80075FE236B09A93D4843F400732363236B0E
:1024D80003F400730793079B4FF48053CDE90B6710
:1024E800CDE9093601F062FE236B354A43F48003D7
:1024F8002363236B03F480030893089B314B19680B
:10250800914227D14FF000724FF480614FF4005090
:102518002C46C5F8A460C5F8C860C5F8D030C5E930
:1025280027264FF40062C5E92A124FF48072C5E9E4
:102538002C024FF40032C5E92E260322C5E93026C5
:10254800214A44F8982F20461C6701F0C7FC204612
:1025580001F046FC002204213C2001F091F93C20C6
:1025680001F0C0F928200022042101F089F928206F
:1025780084E700BF0806002000380240000C024033
:1025880000080240F8000020640A0020106402409D
:10259800AC090020000A002088640240C00B00201B
:1025A800C8080020A0640240340B00204C0C002016
:1025B800B8640240F00700200010024000240240E6
:1025C800245801404408002070640240244BB3F8AA
:1025D800743010B52BBB08212248234C01F0D0FEE3
:1025E8000821224801F0CCFEA278022A08D9082145
:1025F8001C4801F0C5FE4FF400611C4801F0C0FE04
:102608001B4801F06BFC1B4801F068FCA378022B07
:1026180025D9194801F062FC1848BDE8104001F0BE
:102628005DBC174C3C2001F06BF9164B22689A42AE
:1026380002D1E06E01F052FC2268082112481368AA
:1026480023F48033136001F09BFE4FF480510F4850
:1026580001F096FE0E4A536C23F48003536410BDB8
:1026680008060020000C0240F80000200008024084
:10267800640A0020000A0020C80800204C0C002032
:102688004408002024580140001002400024024061
:102698000038024008B5FFF799FF174BB3F87430BC
:1026A80023BB164801F0EFFA20BB154801F0EBFAFE
:1026B80000BB144801F046FAE0B9134801F042FAA9
:1026C800C0B9124B9B78022B14D9114801F0DBFAE0
:1026D80080B9104801F0D7FA60B90F4801F032FA12
:1026E80040B90E48BDE8084001F02CBABDE80840E2
:1026F800FFF776BB08BD00BF08060020AC09002024
:10270800C00B0020C40A0020FC0A0020F8000020AA
:10271800340B0020F0070020140C0020880B002048
:1027280010B5A4B00C46684603F044FC42F61133D9
:102738009C4207D045F222639C4203D04AF64443A8
:102748009C4219D14FF4801340F2AD12009300233C
:1027580010930223CDE90523132368460A9303F057
:102768007BF94FF08053684600934FF080632393C2
:1027780003F072F924B010BD4FF480134FF4AC7419
:102788000093002310930723CDE905430123E4E7D1
:10279800B04A2DE9F04F824687B00C46A2F8740083
:1027A800002840F0AC81AC4D0246AC48AB70FFF756
:1027B800B7FFFFF795FDAA4BAA4AB4F5FA5F83F86D
:1027C80034A01A604FF0010203951A714FF080424D
:1027D8009A6000F0818042F6113294427ED0B4F5BE
:1027E8007A5F79D045F22262944277D0B4F5FA4FF5
:1027F80072D04AF64442944270D04BF68035AC42CF
:102808000CBF102519250022B4F5FA5FDD60C3E975
:102818000422C3E906224FF004021A6263D042F68A
:10282800113294425FD0B4F57A5F5CD045F22262EF
:10283800944258D0B4F5FA4F52D04AF644429442E2
:1028480051D04BF68037BC4214BF4FF020474FF0B1
:10285800C047B4F5FA5F5F6248D042F6113294423D
:1028680044D0B4F57A5F44D045F22262944240D015
:10287800B4F5FA4F3FD04AF6444294423BD04BF667
:102888008036B44214BF142640260022B4F5FA5FFD
:102898009E62DA6231D042F611318C422DD0B4F505
:1028A8007A5F2CD045F222618C422AD0B4F5FA4FD7
:1028B80029D04AF644418C4227D04BF680329442C4
:1028C80014BF0424002466481C6301F0C7F8F0B163
:1028D800002007B0BDE8F08F182594E7042592E79B
:1028E8004FF00047B5E74FF0C047B2E74FF48076A6
:1028F800CBE78026C9E74026C7E70824E3E7032497
:10290800E1E70424DFE70724DDE71446DBE7564B5D
:102918004FF0040A554A4FF00A0B4FF001094FF0E7
:1029280080481A604FF4807283F8340083F804906A
:102938001C63C3E90400C3E908A0C3E90AB0184648
:10294800C3E90285C3E9062901F088F80028BFD148
:10295800039B9B78022B00F29F80404D00230124AB
:10296800434A4FF40059284685F84C302C726C7253
:10297800EB602C746B746B61C5E90023C5E906979D
:10298800C5E9086401F00CF90028A1D122463949AB
:10299800284601F088F900289AD1374D374B85F839
:1029A8004C00E860287468742C726C726C62C5E91B
:1029B80005092846C5E90034C5E9077601F0F0F8AD
:1029C800002885D122462146284601F06CF90028C6
:1029D8007FF47EAF039B9B78022B7FF679AF284D5F
:1029E800284B85F84C00E86068742C726C722C7463
:1029F8006C62C5E905092846C5E90034C5E90776CA
:102A080001F0CEF800287FF463AF22461E4928461D
:102A180001F049F900287FF45BAF1C4D1C4B85F889
:102A28004C00E860287468742C726C726C62C5E99A
:102A380005092846C5E90034C5E9077601F0B0F86C
:102A480000287FF445AF22461249284601F02BF9A9
:102A58003EE700BF08060020F8000020AC0900206F
:102A6800C40A002020740140FC0A002000740140C0
:102A78000075014002000100C00B00208075014074
:102A8800340B00200076014020000500F0070020EC
:102A98008076014010000400684B694A83F83400CE
:102AA8001A6083F804901C63C3E90400C3E90600B4
:102AB800C3E908A0C3E90AB01846C3E9028500F0D3
:102AC800CDFF00287FF404AF5E4B5F4A83F83400E3
:102AD8001A604FF4807283F804901C63C3E9040001
:102AE800C3E908A0C3E90AB01846C3E90285C3E9E7
:102AF800062900F0B3FF00283FF42FAFE8E6534D56
:102B0800FFF76EF9524E214600222846FFF710FAC9
:102B180028462E60B14603F090FD014620B92846AC
:102B2800FFF77AF9FFF7DCFB4A4B00274A4D4FF0D5
:102B380001081A6880212B604FF4803B22F4803210
:102B48002846424E1A604FF40053402269632B61B5
:102B580020232A646B6403934FF480230492042295
:102B68006F62EC61C5F804806F612F630591AF60F7
:102B7800C5F81880EF602F62AF65C5E914370523E3
:102B8800C5E90E77C5E91723C5E90A77C5E912B77C
:102B980003F07CFBD9F80000039B20F48030C6F8D2
:102BA80000900599C9F800000320049A4FF0100915
:102BB8007060304632647762F46177613763C6F8D3
:102BC8003C80C6F808803761C6F81880F760B7629D
:102BD800C6F82C903762F764B765C6E9113B4FF425
:102BE8008023C6E90D17C6E9143704210523C6E971
:102BF800171303F04BFB32683420136843EA0B03C6
:102C080013602A68154D136843EA0B031360AB6819
:102C1800984748F6941398420DD1EB6A34209847A8
:102C28000F4B642251461D603420CDF80090234696
:102C38002D68A8474CE640464BE600BF140C002020
:102C4800A0740140880B00208074014044080020D3
:102C5800245801400458014028090020C8000020D9
:102C6800600A002013460A4601460020FFF790BD7F
:102C7800DFF834D0002103E00C4B5B58435004319B
:102C88000B480C4B42189A42F6D30B4A02E0002339
:102C980042F8043B094B9A42F9D300F05FFD04F077
:102CA80041FB00F073F97047000005200876000822
:102CB80000000020BC010020BC01002050140020AE
:102CC800FEE70B78022B1CBF022348614FF000007F
:102CD80018BF0B7070470378022B04BF03230370DF
:102CE8000020704790F8463343F0040380F84633D9
:102CF800002070470020704701F500536421002030
:102D080059434FF4804391FBF3F1917670474FF4A8
:102D180000530360A3F5804300200B604FF48073D9
:102D2800136070470378022B06D1054B1B685B685C
:102D3800A0F84833002070474FF0FF30704700BFBD
:102D4800000A00200378022B17D10D4B1B685A6824
:102D5800B0F84833A0F848239342D6BFB0F84213DE
:102D68009B1AC2EB4101074A1268D8BF5B1892F858
:102D7800440310FB03F080B270470020704700BF87
:102D8800000A002000070020037810B504464BB164
:102D9800022B01D1FFF79FFFFFF752F9FFF77AFCEB
:102DA80000232370002010BDF8B5384E0546316861
:102DB800344691F8463313F0040F35D0FFF740F945
:102DC8004FF47A74FFF766FC35686B6818681A79EF
:102DD800597CB0FBF4F712FB01F313FB07F32B83C9
:102DE800FFF740FF3068436840301968B1FBF4F1E1
:102DF8008900FFF7CFF8336859680A68B2FBF4F224
:102E0800A3F842230A79497C12FB01F2002183F8D6
:102E180044230846FFF7D8F8326892F8463323F07F
:102E2800040382F84633F8BD0B78022BFBD14869BE
:102E3800C28883889A4224BF00891B189B1A0A8B70
:102E48009BB29A4203D3CA680420936898472168C2
:102E58004B694A68D8881E68B1F84213537C3044DD
:102E6800AAB2FFF72FF921684A69088BD38803446F
:102E78000220D380CA689368984723685B691A89D7
:102E8800D988914204BF0022DA80CCE700070020ED
:102E98002DE9F041144605460F464FF453720021C0
:102EA800204604F07EFA012300264FF47A78237036
:102EB800214BE760E361214B26722362204B65605A
:102EC8006362204BA362204BE362204B2363204BB9
:102ED8006363204BA363204BE363EB6803F5005265
:102EE800642353434FF4804293FBF2F3A37628689C
:102EF8002A79697CB0FBF8F312FB01F717FB03F79B
:102F08002783FFF7AFFEC02104F14000FFF742F826
:102F18002B6831463046B3FBF8F3A4F842332B79DB
:102F28006A7C13FB02F384F844330C4B1C60FFF7F4
:102F38004BF83046BDE8F081912D0008CB2C0008F5
:102F4800DF2C0008ED2C0008FD2C0008012D0008DE
:102F5800172D00082D2D00084D2D00080007002012
:102F6800044B1B682BB11B78022B02D10020FFF702
:102F78001BBF704700070020034B1B681BB1B3F849
:102F88004203FFF711BF70470007002000B5B7B034
:102F9800022400F02DFC4FF48033012119204FF05A
:102FA800080C0F94CDE90513002308934FF4800310
:102FB800CDE90B434FF4C073CDE90D03072305A8F2
:102FC800CDE910C302F0E4FA00B1FEE74FF40013B4
:102FD800319012A8129302F03FFD00B1FEE70F23D3
:102FE8004FF4A052029006216846CDE900344FF410
:102FF8008053CDE9032302F08DFC024600B1FEE7C1
:1030080007490848FDF72EFD07490648FDF73FFD2B
:1030180006490448FDF718FD0248FDF73FFDFEE7A5
:1030280030010020AC0C00200C000020B40000206F
:10303800FEE7FEE77047FEE7FEE7FEE7FEE77047BC
:103048007047704700F0E6BB014801F0E5BD00BFDE
:10305800480F0020014BD86E00F0EABF2809002075
:10306800014B986A00F0E4BFAC090020014B986A54
:1030780000F0DEBFC00B00200368B3F1A04F2DE9BC
:10308800F04190B04AD16A4C4FF4C0520025032653
:10309800236B0A270BA9674843F001032363236BBB
:1030A8000F9703F001030193019B0223CDE90D560D
:1030B800CDE90B2301F07AF84FF400730BA95D48B2
:1030C8000D95CDE90B3501F071F84FF480611223AD
:1030D80058480F97CDE90B1301230BA90D9301F065
:1030E80065F8636B43202A46314643F080036363E7
:1030F800636B03F080030293029B636C43F4804389
:103108006364636C03F480430393039B00F0B8FB90
:10311800432000F0E7FB10B0BDE8F081464A934237
:10312800F9D1434C002502270A26236B4FF00308E8
:103138000BA9404843F001032363236B03F0010309
:103148000493049B236B43F002032363236B03F074
:1031580002030593059B236B43F004032363236B4E
:1031680003F004030693069B236B43F08003236359
:10317800236B03F080030793079B236B43F480734F
:103188002363236B0F9603F480730893089B202313
:10319800CDE90D58CDE90B3701F008F808230BA944
:1031A80024480F96CDE90B37CDE90D5800F0FEFF06
:1031B80043F623430BA921480D950F96CDE90B370C
:1031C80000F0F4FF01230BA91D480D950F96CDE9DA
:1031D8000B3700F0EBFF10230BA91A480D950F963B
:1031E800CDE90B3700F0E2FF4FF400630BA9164856
:1031F8000D950F96CDE90B3700F0D8FF236B4D20C6
:103208002A4643F0804341462363236B03F08043FF
:103218000993099B236B43F000532363236B03F04B
:1032280000530A930A9B00F02BFB4D2071E700BF67
:103238000038024000000240000004400004024040
:1032480000080240001C02400020024000F5707196
:10325800D0F8FC03FDF739BC1C2303FB0103D0F8AD
:10326800FC03D3F80822FDF75DBC1C2303FB010314
:10327800D0F8FC039A6CFDF787BCD0F8FC03FDF787
:1032880003BDC16838B50D1C0446D0F8FC0318BF4F
:103298000125FDF7C8FCD4F8FC032946BDE83840F1
:1032A800FDF7E0BCD0F8FC03FDF7DFBCD0F8FC0369
:1032B800FDF7E4BCD0F8FC03FDF7FEBCD0F8FC0336
:1032C800FDF7EEBCD0F8FC03FDF702BDD0F8FC0317
:1032D800FDF700BD38B51E4906221E4B0024C3E980
:1032E800001240220221C3F8FC03C0F898321846A5
:1032F8001C63D960C3E904420122C3E90844C3E955
:103308000622DA6201F0FDFB2046FEF739F90330A8
:10331800C0F38F0505F13104A4B2B4F5897F12D248
:10332800C4F5A174A4B22F210A4802F019F92A465B
:103338000021084802F0F4F822460121054802F06D
:10334800EFF8002038BDFFF773FE3124EBE700BF2C
:1033580000000440480F002008B5D0F8980201F09A
:1033680046FC002008BD10B51C46D0F8980213464C
:10337800224601F099FF002010BD000008B50B0699
:103388000BD501F07F02084B13445B011A68002A31
:1033980003DA1A6842F080421A60D0F8980201F005
:1033A800BBFF002008BD00BF4820000208B5D0F8C8
:1033B800980202F09CF8002008BD08B5D0F89802E1
:1033C80002F025F8002008BD08B5D0F8980202F0F0
:1033D80058F8002008BD11F0800FD0F898324FF04F
:1033E8001C0217BF01F07F0102FB013102FB013112
:1033F80091F83E0008BF91F8FE01704708B5D0F873
:10340800980201F03DFF002008BD08B5D0F89802E9
:1034180001F0DDFF002008BD08B5D0F8980201F0E2
:10342800AAFF002008BD08B5D0F8980201F0C7FF30
:1034380008BD0000122301480B807047FC000020E3
:10344800042301480B80704710010020002370B549
:103458001E46050F0001ECB2092D94BF30343734F5
:1034680001F8134001EB430401336670DCB2A24259
:10347800EFD870BD1A2310B50B80094B18680833B4
:103488001B68C0180AD0074B082207491C68FFF7B9
:10349800DDFF042205492046FFF7D8FF044810BD88
:1034A800107AFF1F147AFF1F160100202601002042
:1034B8001401002010B5044C0A460448214603F0C4
:1034C800D2FE204610BD00BF4813002084750008B6
:1034D8000A46054908B520B9044803F0C4FE024865
:1034E80008BD0348F9E700BF481300209775000896
:1034F800B875000810B5044C0A460448214603F084
:10350800B2FE204610BD00BF48130020D975000840
:1035180010B5044C0A460448214603F0A4FE204690
:1035280010BD00BF48130020E675000870B58AB0CA
:10353800054601F0E3FA002860D1504B0026504CB4
:103548009D426E610CBF4F4A4F4A9D422A604F4AC6
:10355800C5E901264FF00102C5E90766C5E903265A
:10356800236B4DD143F008034FF480504FF0020C09
:1035780005A92363236B03F008030093009B236BC7
:1035880043F002032363236B079603F002030193BE
:10359800019B1223CDE9050304233D48CDE908C367
:1035A80000F004FE802305A93A4805930B230993EC
:1035B80000F0FCFD236C32460F215F2043F080733E
:1035C8002364236C03F080730293029B236A43F005
:1035D80080732362236A23F08073236200F050F91A
:1035E8005F2000F07FF9602032460F2100F048F993
:1035F800602000F077F9284601F0A6F80AB070BDFF
:1036080043F002034FF48072022122482363236BA4
:10361800079603F002030393039B1223CDE90523C6
:103628000423CDE9081305A900F0C0FD4FF4007389
:1036380005A91848059300F0B9FD236C32460F21FF
:103648001F2043F400132364236C03F40013049332
:10365800049B236A43F400132362236A23F40013B0
:10366800236200F00DF91F2000F03CF920203246BB
:103678000F2100F005F92020BBE700BF0407002058
:10368800003802400060004000540040322791405A
:10369800000C02400004024030B54FF47A7485B043
:1036A80005460294BDF824400194089C009401F05A
:1036B8006BF9044628B1284601F098F82846FFF728
:1036C80035FF204605B030BD30B54FF47A7485B06B
:1036D80005460294BDF824400194089C009401F02A
:1036E8009EF8044628B1284601F080F82846FFF7DE
:1036F8001DFF204605B030BD0148FFF717BF00BFCA
:1037080004070020704700001FB552BA04AC02231A
:1037180024F8022D0A4601460348CDE90043FFF785
:10372800D3FF04B010BD00BF040700201FB500235D
:1037380004AA22F8023D0223CDE900230A460146E5
:103748000448FFF7A9FFBDF80E0040BA80B205B0E3
:103758005DF804FB0407002000F06EB80F49002054
:10376800D1F8883043F47003C1F888300C4B1A68DC
:1037780042F001021A6098601A6822F0847222F4FA
:1037880080321A60074A5A601A6822F480221A6046
:10379800D8604FF000638B60704700BF00ED00E019
:1037A80000380240103000247047000070B50E4EFB
:1037B80005464FF47A730D4A3078B3FBF0F310687E
:1037C800B0FBF3F000F0B0F8044650B90F2D08D85C
:1037D800024629464FF0FF3000F052F82046756047
:1037E80070BD0120FCE700BF500100204C01002003
:1037F800074A032008B5136843F40073136000F008
:103808002DF80020FFF7D2FFFFF7CEFF002008BDFC
:10381800003C0240034A044B11681B780B441360B8
:10382800704700BF4814002050010020014B186861
:10383800704700BF4814002038B50446FFF7F6FF6C
:103848000546631C1EBF044B1B78E418FFF7EEFF08
:10385800401BA042FAD338BD50010020074A00029D
:10386800D36800F4E06023F4E0631B041B0C43F00E
:10387800BF6343F400330343D360704700ED00E0B7
:10388800164B70B5DC684FF0FF36C4F30224C4F160
:103898000705231D042D28BF0425062B06FA05F36A
:1038A8008CBF033C0024002821EA030303FA04F335
:1038B80006FA04F422EA040443EA04034FEA031371
:1038C800DBB206DB00F1604000F5614080F80033B0
:1038D80070BD00F00F00024A1354F9E700ED00E054
:1038E80014ED00E0002808DB4209012300F01F0066
:1038F80003FA00F0014B43F82200704700E100E0B2
:1039080000280DDB4309012200F01F00203302FAD2
:1039180000F0044A42F82300BFF34F8FBFF36F8FC4
:10392800704700BF00E100E00138B0F1807F0AD2A3
:10393800064BF021064A5860002082F8231007221F
:1039480098601A6070470120704700BF10E000E0DF
:1039580000ED00E0426B036890F84C104AB91A6811
:1039680042F400321A6001291ED1022380F84C303B
:1039780070471A68032922F001021A601A6842F493
:1039880000221A601A6842F001021A60EBD1826BB9
:103998001AB91A6842F002021A6090F84030012BF6
:1039A8000CBF436C012383640423DFE703681A68B0
:1039B80022F001021A60426B012A03D11A6822F42C
:1039C80000221A601A6842F001021A6090F84C202E
:1039D800042A10D1826B1AB91A6842F002021A60DE
:1039E80090F84030012B0CBF436C01238364032300
:1039F80080F84C307047022A0CBF01230323F7E7F5
:103A0800144B984217D02033984216D0203398424E
:103A180015D02033984214D02033984213D0203345
:103A2800984212D02033984211D02033984214BFC4
:103A3800FF200720704700207047012070470220B0
:103A48007047032070470420704705207047062000
:103A5800704700BF007401407047000038B5044645
:103A6800002866D0344D0068FFF7CAFF55F82030AB
:103A7800002B5ED12046FFF7EFFF2B6A01332B6244
:103A88002B6A012B19D12D4B1A6822F080421A603B
:103A98001A68A1680A431A601A6822F47F021A6039
:103AA8002279012A05D1E1681A68013942EA0142FE
:103AB8001A601A6842F000421A602068036823F40A
:103AC800714303600268D4E904310B43A1690B43D5
:103AD80013430360036823F00F0303600268D4E90B
:103AE80007310B43616A1343A26A0360013A836892
:103AF80023F45F03836083680B4343EA0243226B2A
:103B08008360436803F007034360436843EAC203E2
:103B1800E26A43EA02234360036843F080030360D8
:103B2800012384F83430FFF76BFF45F8204000206C
:103B380038BD0120FCE700BF9C070020007401404D
:103B48007047000038B5054610B30268114C10469E
:103B5800FFF756FF54F82030D3B1136823F08003E1
:103B68001360236A013B2362236A23B90A4A136854
:103B780023F0004313602846FFF7E2FF002228687D
:103B880085F83420FFF73CFF44F82020104638BD64
:103B98000120FCE79C0700200074014070470000EA
:103BA80038B50446002869D00268354B9A4205D1D9
:103BB8004068012861D0E06801285ED00023012216
:103BC800204623632365C4E91122FFF7E7FF236832
:103BD8001A6822F400221A60227A012A1A680CBF95
:103BE80042F0005222F000521A60627A012A1A68E2
:103BF8000CBF42F4001222F400121A601A68E56839
:103C080022F4FE42022D22F008021A6003D11A683B
:103C180061690A431A60207C1A6801280CBF42F0C7
:103C2800100222F010021A60627C012A1A680CBF86
:103C380042F0200222F020021A605A6922F0634200
:103C480002F0FF225A61626A5969013A0A43E1693E
:103C58000A43216A013942EA01425A61626884F8DA
:103C680040000020C4E90D25A269E2631A6842F009
:103C780001021A60012384F84C3038BD0120FCE7AA
:103C880000750140704710B5044650B102681368CA
:103C980023F001031360FFF7F5FF002084F84C00C0
:103CA80010BD0120FCE790F84C30013BDBB2FD2B46
:103CB80010B513D803680902012A1C6801F07F4176
:103CC80024F0E06408BF41F4802124F480241C60BF
:103CD8001C68214319600263002010BD0120FCE725
:103CE800F8B5134605460A4661B35BB307683968F9
:103CF800890227D5416B51B9016B41B9816AC869FD
:103D080008B9012B1ED1C969B1F5807F1AD095F881
:103D18004C6006F0FD06012E14D1A86A0D490E4C20
:103D2800C1630E49C164C169B1F5807F07F11C0107
:103D380018BF0024046400F0FBF8044620B1FF23F8
:103D480085F84C30012402E02846FFF703FE2046A0
:103D5800F8BD00BF973D0008A13D0008AD3D000833
:103D680090F84C30022B10B5044601D0042B07D133
:103D7800A06A00F01AF9014620B1FF2384F84C30FC
:103D8800012102E02046FFF711FE084610BD08B5E4
:103D9800806BFEF7FFF908BD08B5806BFEF742FAA5
:103DA80008BD704708B5806B03230365FFF7F9FF6B
:103DB80008BD000003681821DAB223F47F73103AB3
:103DC80023F00303B2FBF1F20449032A895C88BF9C
:103DD8000433C1658365806D704700BF7C7500083A
:103DE80070B50446FFF722FD0546002C71D000236C
:103DF800226884F83430022384F83530136823F0BD
:103E08000103136021680B68D8073CD40B68324D56
:103E1800A0691D40D4E901231343E26813432269D2
:103E2800134362691343E26903431343226A13434A
:103E3800626A042A43EA050302BFD4E90B563543F4
:103E48002B43042A0B604B6923F0070343EA020360
:103E58000BD1A26AE56A13433DB1F8B9012A2DD006
:103E680001D3022A01D1EA012BD44B612046FFF786
:103E7800A1FFE26D3F23934083600020012360652A
:103E880084F8353009E0FFF7D1FC401B0528B9D983
:103E980020230320636584F8350070BDB0F5005F0A
:103EA80013D1032AE1D801A050F822F0CB3E000834
:103EB8006F3E0008CB3E0008C53E0008B5F1C07F44
:103EC800D3D1402301206365E5E7022AF9D9032A03
:103ED800C8E70120E1E700BF3F8010E038B505469C
:103EE80020B390F83540E4B2022C1DD003680024BA
:103EF8001A6822F001021A6021221C605C609C6032
:103F0800DC601C615A61FFF755FFEA6D3F2393405F
:103F180083606C6585F8344085F83540C5E90F4401
:103F2800C5E91144C5E91344204600E0012038BD25
:103F380070B590F83440012C35D00124866D0025E9
:103F480080F8344090F83540012C4FF0020428D115
:103F580080F8354004684565256825F48025256086
:103F680063608368402B19D1A260E160C26D3F2372
:103F78009340B360236843F016032360636943F0FA
:103F880080036361036C1BB1236843F0080323605B
:103F98002368002043F00103236070BDA160E26044
:103FA800E4E780F834500220F7E770B50446856DE1
:103FB800FFF73CFC064694F83530022B06D08023E8
:103FC80001206365002384F8343070BD23681A68C3
:103FD80022F016021A605A6922F080025A61226C95
:103FE8000AB9A26C1AB11A6822F008021A601A6893
:103FF80022F001021A602368186810F0010009D144
:10400800E26D3F239340AB60012384F8340084F8C9
:104018003530DAE7FFF70AFC801B0528EBD92023A7
:1040280003206365002384F8350084F83430CCE736
:104038000023F7B5019308225B4B0446856D1F6882
:10404800C36D2E689A4032420CD001680868400758
:1040580008D5086820F004000860AA60626D42F084
:104068000102626501229A40324208D021684969FA
:10407800090604D5AA60626D42F002026265042254
:104088009A40324208D021680968880704D5AA6096
:10409800626D42F00402626510229A40324210D0EA
:1040A8002368196809070CD5AA601A68500337D520
:1040B8001B68190301D4236C00E0A36C0BB12046E4
:1040C8009847E16D20228A4032423AD02368186826
:1040D800C60636D5AA6094F83520052A1A6827D16D
:1040E80022F016021A605A6922F080025A61226C84
:1040F8000AB9A26C1AB11A6822F008021A603F23A2
:104108008B40AB60002384F83430012384F83530C9
:10411800236D002B45D0204603B0BDE8F04018477A
:104128001A68D205C7D41A6822F008021A60C2E7D2
:10413800500327D51B68190331D4636C0BB1204693
:104148009847636D6BB3636DDA0719D50523226849
:1041580084F83530136823F0010313604FF41653C5
:10416800B7FBF3F7019B0133BB42019302D81368F5
:10417800DB07F7D4002384F83430012384F8353082
:10418800E36CC6E71A6812F4807208D1196821F046
:1041980010011960012384F8342084F83530E36B6A
:1041A800CCE703B0F0BD00BF4C0100202DE9F04F73
:1041B8000B6885B0DFF8C081019300236C4ADFF8F3
:1041C800BC914FF0010C019C0CFA03FC04EA0C06AC
:1041D800B44540F0B3804C6824F01007022F16D184
:1041E8004FEAD30A03F0070B4FF00F0E00EB8A0AD1
:1041F8004FEA8B0BDAF820500EFA0BFE25EA0E0E6A
:104208000D6905FA0BF545EA0E05CAF820504FEA84
:10421800430A0325D0F800B004F0030E05FA0AF5A6
:10422800013F0EFA0AFEED43012F05EA0B0B4EEA99
:104238000B0EC0F800E011D8876807EA050BCF68B5
:1042480007FA0AFE4EEA0B078760476827EA0C0C54
:10425800C4F300179F4047EA0C074760C7683D4012
:104268008F6807FA0AF73D43C560E50066D5D8F8B8
:10427800445023F0030703F0030C4FF00F0E45F4EE
:10428800804507F180474FEA8C0CC8F8445007F581
:104298009C37D8F8445005F480450395039D0EFAE1
:1042A8000CF5D7F808A02AEA050E324DA8424CD0E2
:1042B80005F58065A8424AD005F58065A84248D032
:1042C80005F58065A84246D005F58065A84244D02A
:1042D800484544D005F50065A84242D005F58065FB
:1042E800A84240D005F58065A8423ED005F5806516
:1042F800A84214BF0A25092505FA0CF514F4803FD5
:1043080045EA0E05BD606FEA060715680CBF3D401B
:10431800354314F4003F156055680CBF3D403543E4
:1043280014F4801F556095680CBF3D403543A402C6
:104338009560D56854BF3D403543D5600133102B97
:104348007FF43FAF05B0BDE8F08F0025D4E7012525
:10435800D2E70225D0E70325CEE70425CCE70525DB
:10436800CAE70625C8E70725C6E70825C4E700BF4A
:10437800003C0140000002400038024000140240A6
:104388002DE9F04F00244C4EDFF834A1DFF834B1AA
:104398004FF0010909FA04F232EA010374D1032348
:1043A80004FA09F5076804F0070C03FA05F524FA7E
:1043B80003FE4FEA8C0CD243ED4300EB8E0E2F40E8
:1043C80007600F27DEF8208007FA0CFC28EA0C0C9F
:1043D800CEF820C0D0F808C005EA0C0CC0F808C018
:1043E800D0F804C002EA0C0CC0F804C0D0F80CC025
:1043F80005EA0C0504EA030C304BC56024F00305FC
:104408004FEA8C0C984205F1804507FA0CF705F540
:104418009C35D5F808E007EA0E0E3AD003F580631C
:10442800984238D003F58063984236D003F580630C
:10443800984234D003F58063984232D003F5806304
:10444800984230D0504530D0584530D003F54063BD
:1044580098422ED003F5806398420CBF09230A23A3
:1044680003FA0CF373450FD1AB6823EA0707AF6073
:10447800336813403360736813407360B368134044
:10448800B360F3681A40F2600134102C80D1BDE8A3
:10449800F08F0023E4E74B46E2E70223E0E703233B
:1044A800DEE70423DCE70523DAE70623D8E707235A
:1044B800D6E70823D4E700BF003C014000000240D3
:1044C80000180240001C024003689A69910701D550
:1044D80000229A629A69D20703D49A6942F00102CB
:1044E8009A61704730B5039D046845EA02426068E6
:1044F8001343C1F309021A43034B43EA555320EA15
:1045080003000243626030BDFF63FF032DE9F04101
:10451800069F0446884616461D462268936938EA6F
:1045280003030CBF01230023B34201D000200BE09A
:104538006B1CF3D055B92023032084F841300023A5
:1045480084F8423084F84030BDE8F081FFF76EF916
:10455800C01BA842E1D9EEE7036870B50446986924
:104568000D46164610F0100012D170BD691C10D00F
:1045780025B1FFF75BF9801B854209D22023032070
:1045880084F84130002384F8423084F84030ECE766
:10459800236899698A06E9D5102220252046DA6120
:1045A800DD61FFF791FF22680120536823F0FF7354
:1045B80023F48B3323F4FF7323F0010353600423A4
:1045C8006364002384F8415084F8403084F8423012
:1045D800CBE770B504460D46164623689B699B07D2
:1045E80001D5002015E0324629462046FFF7B4FFE2
:1045F800B0B96A1CF1D06DB9636C032043F0200395
:104608006364202384F84130002384F8423084F81E
:10461800403070BDFFF70AF9801BA842DDD9EBE7EF
:104628000120F6E7F7B51F46184B0446099E00938C
:1046380015464FF08073FAB2FFF754FF32460899D7
:104648002046FFF7C6FF28B1636C042B10D1012068
:1046580003B0F0BD012F23680CD1EDB200228021F8
:1046680020469D62089B0096FFF750FF0028EFD078
:104678000320EDE72A0A089920469A623246FFF796
:10468800A8FF0028E0D12368E7E700BF00200080EA
:10469800F7B51F46174B0446099E0093154600239D
:1046A800FAB2FFF71FFF324608992046FFF791FF3D
:1046B80028B1636C042B10D1012003B0F0BD012F89
:1046C80023680CD1EDB20022402120469D62089B50
:1046D8000096FFF71BFF0028EFD00320EDE72A0A1A
:1046E800089920469A623246FFF773FF0028E0D106
:1046F8002368E7E70020008070B504460D4616469B
:1047080023689B699B0601D5002013E032462946A1
:104718002046FFF721FFA0B96DB9636C032043F071
:1047280020036364202384F84130002384F8423056
:1047380084F8403070BDFFF779F8801BA842DFD9B4
:10474800EBE70120F6E7704710B5044600284AD089
:1047580090F8413003F0FF021BB980F84020FFF7C2
:10476800F2FF242384F8413023681A6822F00102FA
:104778001A60626822F070621A619A6822F4004234
:104788009A60D4E90221012924D142F400429A60B6
:104798005A68002042F0007242F400425A60DA6817
:1047A80022F40042DA60D4E904210A43A16942EA0A
:1047B8000122DA60D4E907210A431A601A6842F034
:1047C80001021A602023606484F84130206384F871
:1047D800420010BD42F4044202299A60D8D14FF435
:1047E80000625A60D4E70120F3E7704710B5044629
:1047F80098B10268242380F84130136823F001033C
:104808001360FFF7F2FF0020606484F8400084F82A
:104818004100206384F8420010BD0120FCE72DE927
:10482800F04F9B4690F8413085B00446202B0F4648
:104838000392BDF83CA0DDF8409040F0A3800E9BA9
:104848001BB9012005B0BDE8F08FBAF1000FF8D010
:1048580090F84030012B00F09580012580F84050F9
:10486800FEF7E4FF1923009006462A464FF400415C
:104878002046FFF74BFE8046C8B921236063039AA0
:10488800394684F84130402384F842300E9B6064F6
:10489800204663625B46A4F82AA0CDE90096FFF79C
:1048A800C1FE30B1636C84F84080042BC9D003206A
:1048B800C8E7638DFF2B10D9FF224FF0807300905B
:1048C800228539462046FFF70DFE324649462046E6
:1048D800FFF77FFE48B1636CE7E7628D4FF0007326
:1048E800009092B22285D2B2EBE7636A5A1C6262E8
:1048F80022681B789362228D638D013A013B92B244
:104908009BB222856385B2B9638D9BB29BB1009639
:104918004B4680212046FFF7F9FD0028C7D1638D5B
:10492800FF2B27D9FF224FF080730090228539464C
:104938002046FFF7D7FD638D9BB2002BC5D13246C9
:1049480049462046FFF7D8FE0028C4D12368202115
:10495800D9615A6822F0FF7222F48B3222F4FF7276
:1049680022F001025A6084F8411084F8400084F86B
:10497800420067E7628D4FF00073009092B2228583
:10498800D2B2D4E702205DE72DE9F04F9B4690F8BC
:10499800413085B00446202B0F460392BDF83CA059
:1049A800DDF8409040F0A6800E9B1BB9012005B0B1
:1049B800BDE8F08FBAF1000FF8D090F84030012B25
:1049C80000F09880012580F84050FEF72FFF19234A
:1049D800009006462A464FF400412046FFF796FD10
:1049E8008046C8B922236063039A394684F8413067
:1049F800402384F842300E9B6064204663625B4625
:104A0800A4F82AA0CDE90096FFF742FE30B1636C06
:104A180084F84080042BC9D00320C8E7638DFF2B9E
:104A2800354B43D9FF2200934FF0807322853946D6
:104A38002046FFF757FD00964B46002204212046EA
:104A4800FFF764FD0028E7D123685A6A636A591C96
:104A580061621A70228D638D013A013B92B29BB25A
:104A680022856385B2B9638D9BB29BB100964B4694
:104A780080212046FFF74AFD0028CDD1638DFF2B0A
:104A88001CD9FF224FF080730090228539462046BA
:104A9800FFF728FD638D9BB2002BCCD132464946E7
:104AA8002046FFF729FE88B1636CB3E7628D009357
:104AB8004FF0007392B22285D2B2B8E7628D4FF000
:104AC8000073009092B22285D2B2DFE723682021DA
:104AD800D9615A6822F0FF7222F48B3222F4FF72F5
:104AE80022F001025A6084F8411084F8400084F8EA
:104AF80042005CE702205AE70024008090F8410059
:104B080070472DE9F04104468AB000286DD090F82E
:104B1800BD3303F0FF021BB980F8BC23FEF7ACFAE3
:104B2800254603236E4604F1040855F8100B84F853
:104B3800BD3301F0DEFD0FCD0FC60FCD0FC695E8D2
:104B4800030004F1100586E8030098E80E002068C9
:104B5800012601F08DFD0021206801F0D0FD002123
:104B680022462346084683F83C10A3F84210013138
:104B780083F83D600F2983F83F001865C3E91100E9
:104B880003F11C03EFD100231F4682F8FC310133E7
:104B980082F8FD711C320F2B82F8E371C2F8E871BC
:104BA800C2F8EC71C2F8F471EFD10FCD6E460FC6A2
:104BB8000FCD0FC695E8030086E8030098E80E00BD
:104BC800206801F0DDFD012384F8387084F8BD33D6
:104BD800636A012B02D1204600F0C6FC206802F06F
:104BE800D5F800200AB0BDE8F0810120FAE790F876
:104BF800BC33012B10B504460CD0012380F8BC331C
:104C0800006802F0B7F8206801F06DFD002084F814
:104C1800BC0310BD0220FCE72DE9F04F066887B001
:104C280004463046D6F8409002F0EBF8029000288F
:104C380040F04F81206802F0B5F8002800F0498163
:104C4800206802F0AFF8820704D52268536903F0A0
:104C580002035361206802F0A5F810F400250CD077
:104C68002068002502F0A2F806F530678046DFF8D4
:104C7800CCB5B8F1000F40F02F81206802F092F80F
:104C880041030BD52068274602F098F80025824694
:104C980006F51069BAF1000F40F09B81206802F018
:104CA80081F8002815DAD6F8043823F00103C6F88D
:104CB800043894F8F033012B40F028820021204674
:104CC80084F8F01300F063FC2268536903F0004392
:104CD8005361206802F066F802050BD5D6F808384B
:104CE800DB0702D52046FEF7DDFA2268536903F494
:104CF80000635361206802F055F8070114D5236852
:104D08005A6902F000625A6194F8F023002A40F0D0
:104D180001825B6D01212046C3F3830384F8F013FD
:104D2800C4F8F43300F033FC206802F03BF8C00408
:104D380035D506F500677B681021206823F001034C
:104D48007B6001F0F3FC606806F510634FF67F3175
:104D5800029A904240F0E281FB6943F00113FB6143
:104D6800236B002B00F0EE81D7F8843043F00B035F
:104D7800C7F884307B6C43F00B037B64D6F80038AB
:104D880004F57072217C23F4FE632068C6F80038AD
:104D980002F056F82268536903F48053536120687F
:104DA80002F000F881041DD5206802F02EF8206872
:104DB800C36823F47053C36001F09AFD002840F0E3
:104DC800CA814FF400732268E0606361D36843F4DA
:104DD8001053D3602046FEF754FA2268536903F44F
:104DE80000535361206801F0DDFFC3062BD522680C
:104DF800936923F010039361376AC7F3434307F0BD
:104E08000F09022B40F0278247F6F0731F4215D096
:104E18004FF01C08C7F30A17304608FB09483A4602
:104E2800D8F8081201F034FFD8F808323B44C8F823
:104E38000832D8F814321F44C8F8147222689369EB
:104E480043F010039361206801F0ACFF070707D512
:104E58002046FEF712FA2268536903F008035361EB
:104E6800206801F09FFFC60208D5E9B22046FEF788
:104E780025FA2268536903F480135361206801F00E
:104E880091FF800208D5E9B22046FEF713FA22689E
:104E9800536903F400135361206801F083FF410054
:104EA80007D52046FEF70EFA2268536903F08043BF
:104EB8005361206801F076FF42070AD523685D68D0
:104EC8006B0702D52046FEF701FA226853682B4388
:104ED800536007B0BDE8F08F18F0010F75D0EAB243
:104EE80020681146039201F071FF10F0010F82460D
:104EF80035D0012307EB4510D945039A8360236910
:104F080045D9012B16D1BB681B0402D54FF40043C9
:104F180083601C23016903FB0543C1F31201D3F825
:104F280004C2ACEB0101C3F81412D3F808126144AF
:104F3800C3F80812B34B99452BD1BB68190428D57F
:104F48004FF4004383602169012908D13DB9D4F8A1
:104F5800103223B904F57072206801F071FF1AF05D
:104F6800080F24D0A74A07EB4513914516D1BA6814
:104F7800120402D54FF400429A602269012A0FD127
:104F8800BA6810040CD54FF400429A6008E0012B6F
:104F9800BFD011462046FEF75FF9D4E7D945ECD8D3
:104FA80020460393FEF752F90822039B9A601AF0F1
:104FB800100F03D007EB451310229A601AF0200F48
:104FC80003D007EB451320229A6001354FEA5808B1
:104FD8004FE61AF0010F7AD05FFA85FB2068594630
:104FE80001F0FDFE10F0010F804624D0012005F0ED
:104FF8000F02D6F83438594600FA02F223EA0203BF
:105008000246C6F8343809EB451398602369834291
:10501800204602BFD7E911239B18BB64FEF725F988
:105028002169012907D135B9236D23B904F57072B7
:10503800206801F005FF18F0080F03D009EB4513AD
:1050480008229A6018F0100F03D009EB45131022BC
:105058009A6018F0400F03D009EB451340229A607C
:1050680018F0020F03D009EB451302229A6018F0DA
:10507800800F2CD023680393D7E91432A3EB0208DE
:105088007B6C984528BF984608F103039B08049356
:10509800039B03F5106303EB45130593059B049AE3
:1050A8009B699BB2934204D9D7E91432934200D941
:1050B80093B9B8F1000F0AD1039B012203F5006BE5
:1050C800AA40D3F8343823EA0203CBF83430013548
:1050D8004FEA5A0A1C37DDE5A3EB02087B6C5A46F7
:1050E8000398984528BF984608F103039B08049342
:1050F800237C00931FFA88F3B96C01F0E9FCBB6CC0
:105108004344BB647B6D43447B65C7E72046FEF799
:10511800CDF8D9E52046FEF7C5F805E699602033B5
:1051280053F8202C22F4001243F8202CC3F8E8117D
:10513800D3F8E02122F40012C3F8E021029A0132E8
:10514800029205E67B6943F02B037B613B6943F0E0
:105158000B033B6112E60323E3604023636100F025
:1051680075FC294B294A03449342236804D8DA681A
:1051780042F47052DA602DE6254A264902448A42F2
:1051880003D8DA6842F46052F4E7A0F574022249C1
:10519800A2F510528A4203D8DA6842F45052E9E77D
:1051A800A0F183721D49A2F5E7428A4203D8DA6862
:1051B80042F44052DEE71A4A1A4902448A4203D8A6
:1051C800DA6842F43052D5E7174A184902448A424D
:1051D80003D8DA6842F42052CCE7154A154902444C
:1051E8008A4203D8DA6842F41052C3E7A0F1B772D2
:1051F8001149A2F558528A4222D8DA6842F400527C
:10520800B8E700BF0A31544F405327FFFF340C0062
:10521800401E1BFF3F420F007F4F12001FD6130096
:1052280060B6E5FE5FE3160000D3CEFE3F771B00B5
:10523800C05BB3FEBF9121001F7538000A30544F80
:105248000D4A0E4902448A42DA6894BF42F4E05299
:1052580042F4C0528EE7062B7FF4F0AD4FF01C08E5
:10526800082204F57071304601F012FD08FB094868
:10527800C7F30A17DDE500BFE05459FEDF9C410083
:1052880090F8BC23012A10B504460BD0012280F8FF
:10529800BC2384F83810006801F05CFD002084F815
:1052A800BC0310BD0220FCE770B501F00F050446F1
:1052B80011F0800F4FF01C06C5EBC5004FEA8000C7
:1052C8001FD000F13C0106FB05460120214486F869
:1052D8003D008A604A780D70CB7002B1CD80022BF8
:1052E80004BF00230B7194F8BC33012B12D00123A7
:1052F800206884F8BC3301F009FB002084F8BC0363
:1053080070BD00F5FE7106FB05460020214486F8B5
:10531800FD01DEE70220F3E710B5044601F00F00B7
:1053280011F0800F4FF01C02C0EBC0034FEA83035B
:1053380016D003F13C0102FB00420123214482F80C
:105348003D30087094F8BC33012B12D0012320683B
:1053580084F8BC3301F018FB002084F8BC0310BDAE
:1053680003F5FE7102FB00420023214482F8FD315F
:10537800E7E70220F3E738B501F00F051C2404FB2A
:10538800050104FB050401F5FE71C4F81032002381
:10539800C4F80822C4F8143284F8FD3184F8FC51AA
:1053A80003690068012B08BFC4F80C22DAB21DB9E2
:1053B80001F01AFB002038BD01F09EFBFAE71C2320
:1053C80001F00F0103FB0101B1F81402704738B571
:1053D80001F00F051C2404FB050104FB05043C3106
:1053E80023650023A2646365012384F83C5084F894
:1053F8003D3003690068012B08BFE264DAB21DB9C9
:1054080001F0F2FA002038BD01F076FBFAE738B572
:1054180001F00F05436804469D422ED811F0800F15
:105428004FF01C021FD002FB050302FB05010122FD
:105438003C3381F83D2001221D709A7094F8BC130A
:1054480091421CD084F8BC231946206801F02EFC38
:105458002DB904F57072217C206801F0F1FC002060
:1054680084F8BC0338BD02FB010302FB01010022E2
:1054780003F5FE7381F8FD21DDE70120F2E7022044
:10548800F0E738B501F00F02436804469A422AD87B
:10549800C2EBC20311F0800F4FF01C004FEA8303E8
:1054A80018D003F13C0100FB02400123214480F89D
:1054B8003D3000250A708D7094F8BC33012B14D050
:1054C8000123206884F8BC3301F01BFC284684F8CB
:1054D800BC5338BD03F5FE7100FB02400023214494
:1054E80080F8FD31E5E70120F3E70220F1E790F8C5
:1054F800BC33012B10B5044610D0012380F8BC330F
:105508000B06006807D501F00F0101F00FF9002024
:1055180084F8BC0310BD01F01BF9F8E70220F9E795
:105528000068120470B5446A19B9224382620020E7
:1055380070BD836A4D1E04EB134400235E1CDBB26E
:105548009D4205D83F31224300EB81004260EEE7DF
:10555800403300EB83035B6804EB13443346EDE709
:105568000368002059627047012102680346C0F8A9
:10557800F813002083F8F003936943F00063936104
:10558800536D43F0805343F00303536570477047EE
:105598002DE9F341044618B9012002B0BDE8F081B5
:1055A8000368D80710D4236899075ED423681907BD
:1055B80000F1A38023685A0700F1C480A269002A79
:1055C80040F02E810020E8E7934B9A6802F00C0225
:1055D800042A07D09A6802F00C02082A0AD15B68EC
:1055E8005A0207D58C4B1B689B03DCD56368002BDC
:1055F800D9D1D1E76368884DB3F5803F11D12B68C5
:1056080043F480332B60FEF711F9834D06462B686F
:105618009F03C8D4FEF70AF9801B6428F7D9032032
:10562800BBE79BB92B6823F480332B602B6823F4EA
:1056380080232B60FEF7FAF806462B689803B2D54C
:10564800FEF7F4F8801B6428F7D9E8E7B3F5A02F34
:105658002B6803D143F480232B60D0E723F48033F5
:105668002B602B6823F48023CCE76B4B9A6812F0ED
:105678000C0F07D09A6802F00C02082A11D15B6857
:1056880059020ED4644B1A68920702D5E268012ABF
:1056980082D11A68216922F0F80242EAC1021A602E
:1056A80084E7E3685C4DBBB12B6843F001032B60D2
:1056B800FEF7BCF806462B689F0707D52B682269BA
:1056C80023F0F80343EAC2032B606FE7FEF7AEF856
:1056D800801B0228EFD9A2E72B6823F001032B6077
:1056E800FEF7A4F806462B6898077FF55FAFFEF72C
:1056F8009DF8801B0228F6D991E76369464D83B16E
:105708006B6F43F001036B67FEF790F806466B6F0B
:105718009B073FF54FAFFEF789F8801B0228F6D9A3
:105728007DE76B6F23F001036B67FEF77FF8064692
:105738006B6F9F077FF53EAFFEF778F8801B022856
:10574800F6D96CE7344B1A6CD00027D41A6C0126B2
:1057580042F080521A641B6C03F080530193019B42
:105768002E4D2B68D9051BD5A3682B4D012B27D1AE
:105778002B6F43F001032B6741F28835FEF756F88B
:10578800254F80463B6F9B073FD5002E3FF416AF51
:10579800214A136C23F0805313640FE70026DFE7D8
:1057A8002B6843F480732B60FEF740F807462B689C
:1057B800DA05D9D4FEF73AF8C01B6428F7D92EE7E2
:1057C800ABB92B6F41F2883823F001032B672B6F9D
:1057D80023F004032B67FEF729F807462B6F980779
:1057E800D3D5FEF723F8C01B4045F7D917E7052B9B
:1057F8002B6F03D143F004032B67B9E723F00103B0
:105808002B672B6F23F00403B5E7FEF70FF8A0EB27
:105818000800A842B6D902E70038024000700040EC
:10582800244DAB6803F00C03082B3FF4B5AE2B688E
:10583800022A23F080732B602FD1FDF7F7FF06466D
:105848002B68990123D4D4E907321343626A43EAE7
:105858008213E26A43EA0263226B43EA0273A26A92
:10586800144C5208013A43EA02436B602B6843F038
:1058780080732B60FDF7DAFF054623689A013FF530
:10588800A1AEFDF7D3FF401B0228F6D9C7E6FDF706
:10589800CDFF801B0228D3D9C1E6FDF7C7FF044618
:1058A8002B689B017FF58EAEFDF7C0FF001B022819
:1058B800F6D9B4E600380240134908B58B6803F0FE
:1058C8000C03042B03D0082B03D0104800E0104829
:1058D80008BD4A684B68496802F03F0213F4800328
:1058E800C1F388111ABF0A4800230848A1FB000128
:1058F800FAF79EFC044B5B68C3F3014301335B007A
:10590800B0FBF3F0E4E700BF003802400024F400E5
:1059180040787D012DE9F0410D46044610B901207B
:10592800BDE8F081454A136803F00F038B4227D383
:1059380021688F072FD4C80742D4404A136803F060
:105948000F03AB4265D8226851076ED4130707D5F9
:105958003B4A2169936823F4604343EAC103936097
:10596800FFF7AAFF364B374A9B68C3F30313D35C90
:10597800D840354B18600020FDF718FF0020CFE70E
:10598800136823F00F030B431360136803F00F032E
:105998008B42C4D1CCE711F0040F294B03D09A688D
:1059A80042F4E0529A600E0703D59A6842F46042C6
:1059B8009A609A68A06822F0F00202439A60BAE7F7
:1059C80061681F4B01291A681BD112F4003FA6D049
:1059D8009A6841F288381A4E22F003020A439A6004
:1059E800FDF724FF0746B368626803F00C03B3EBC6
:1059F800820FA2D0FDF71AFFC01B4045F3D9032040
:105A08008EE7022902D112F0007FE0E712F0020FC0
:105A1800DDE7136823F00F032B431360136803F0CB
:105A28000F03AB427FF47BAF8DE70549E0688B68D5
:105A380023F4E05303438B6088E700BF003C024037
:105A480000380240647500084C010020014B1868BA
:105A5800704700BF4C0100202DE9F7430268044657
:105A680012F001060BD0BA4B996821F40001996035
:105A7800466B99683143B6FA86F67609996012F44E
:105A8800002512D0B249E56BD1F88C30B5F5801FEE
:105A980023F4401308BF012643EA050316BFB5FAED
:105AA80085F500256D09C1F88C30D70210D5A848B6
:105AB800216CD0F88C30B1F5800F23F4400343EA11
:105AC8000103C0F88C3000F0A981002908BF012526
